:0400000029EF00F0F4
:100008005E820E0135A30BEF00F00DEF00F010EF4C
:1000180000F05DC05BF0359335A115EF00F017EFE8
:1000280000F01AEF00F05DC05CF0359133AB1FEFC4
:1000380000F021EF00F027EF00F05D2A339B090E56
:0E004800D46EC30ED36E5E9211006FEF10F0F7
:100E000000483A256420446F573A2564204D443AFF
:100E10002564202000446174653A2025642F2564F0
:070E20002F256420200000D3
:100E2800170E5D641AEF07F01CEF07F02FEF07F0BD
:100E3800000E5D6E12C0D9FF13C0DAFFDF2A14C09E
:100E4800D9FF15C0DAFFDF2A10C0D9FF11C0DAFFB9
:100E5800DF50FBEC0CF012C0D9FF13C0DAFF070E0D
:100E6800DF6439EF07F03BEF07F041EF07F012C0FE
:100E7800D9FF13C0DAFF010EDF6E14C0D9FF15C009
:100E8800DAFF1E0EDF644BEF07F04DEF07F08CEF33
:100E980007F016C0D9FF17C0DAFF040EDE18D8B461
:100EA80058EF07F05AEF07F081EF07F016C0D9FFA7
:100EB80017C0DAFF060EDE18D8B465EF07F067EF43
:100EC80007F081EF07F016C0D9FF17C0DAFF090E47
:100ED800DE18D8B472EF07F074EF07F081EF07F06F
:100EE80016C0D9FF17C0DAFF0B0EDE18D8A47FEFA3
:100EF80007F081EF07F08CEF07F014C0D9FF15C099
:100F0800DAFF010EDF6E16C0D9FF17C0DAFFDF2A3D
:100F180014C0D9FF15C0DAFF1F0EDF6496EF07F083
:100F280098EF07F0F0EF07F016C0D9FF17C0DAFF07
:100F3800DE04D8B4A2EF07F0A4EF07F0E5EF07F05E
:100F480016C0D9FF17C0DAFF030EDE18D8B4AFEF0A
:100F580007F0B1EF07F0E5EF07F016C0D9FF17C0AB
:100F6800DAFF050EDE18D8B4BCEF07F0BEEF07F0C5
:100F7800E5EF07F016C0D9FF17C0DAFF070EDE1835
:100F8800D8B4C9EF07F0CBEF07F0E5EF07F016C0CC
:100F9800D9FF17C0DAFF080EDE18D8B4D6EF07F06D
:100FA800D8EF07F0E5EF07F016C0D9FF17C0DAFF52
:100FB8000A0EDE18D8A4E3EF07F0E5EF07F0F0EF2C
:100FC80007F014C0D9FF15C0DAFF010EDF6E16C096
:100FD800D9FF17C0DAFFDF2A14C0D9FF15C0DAFF1E
:100FE8001B0EDF64FAEF07F0FCEF07F045EF08F09F
:100FF80016C0D9FF17C0DAFF020EDE18D8A407EF13
:1010080008F009EF08F045EF08F018C0D9FF19C03B
:10101800DAFFDECF1AF0DDCF1BF0030E1A16000E32
:101028001B161A501B10D8A41CEF08F01EEF08F06E
:1010380037EF08F014C0D9FF15C0DAFF1D0EDF64C2
:1010480028EF08F02AEF08F045EF08F014C0D9FFA0
:1010580015C0DAFF010EDF6E16C0D9FF17C0DAFF20
:10106800DF2A45EF08F014C0D9FF15C0DAFF1C0EBF
:10107800DF6441EF08F043EF08F045EF08F02AEF8E
:1010880008F014C0D9FF15C0DAFF1F0EDF644FEF58
:1010980008F051EF08F071EF08F016C0D9FF17C03B
:1010A800DAFF0C0EDE18D8A45CEF08F05EEF08F04B
:1010B80071EF08F014C0D9FF15C0DAFF010EDF6E1A
:1010C80016C0D9FF17C0DAFF010EDF6E18C0D9FFAE
:1010D80019C0DAFFDE2A000EDD2216C0D9FF17C0BC
:1010E800DAFF030EDE18D8A47CEF08F07EEF08F0D4
:1010F800B2EF08F014C0D9FF15C0DAFF180EDF648C
:1011080088EF08F08AEF08F0B2EF08F012C0D9FFB4
:1011180013C0DAFF070EDE18D8A495EF08F097EF92
:1011280008F0B2EF08F010C0D9FF11C0DAFFDF50A5
:10113800D8A4A1EF08F0A3EF08F0B2EF08F05D041F
:10114800D8A4A9EF08F0ABEF08F0B2EF08F05D06FD
:1011580010C0D9FF11C0DAFF010EDF6E000E1C6E41
:1011680016C0D9FF17C0DAFF080EDE18D8A4BFEFE3
:1011780008F0C1EF08F0DCEF08F014C0D9FF15C083
:10118800DAFF180EDF64CBEF08F0CDEF08F0DCEFE4
:1011980008F012C0D9FF13C0DAFF070EDE18D8A472
:1011A800D8EF08F0DAEF08F0DCEF08F0010E1C6E5B
:1011B80010C0D9FF11C0DAFFDF501C140009D8B4E1
:1011C800E8EF08F0EAEF08F0F1EF08F05D2A10C048
:1011D800D9FF11C0DAFF000EDF6E12001EC034F016
:1011E8001FC035F020C036F021C037F022C038F0DB
:1011F80023C039F024C03AF025C03BF03BBE07EFCE
:1012080009F00AEF09F0010E0BEF09F0000E3E6E2F
:101218003E50D8B412EF09F014EF09F024EF09F0AA
:101228003B1E3A1E391E381E371E361E351E346CBC
:10123800000E352236223722382239223A223B2222
:101248000001D1BF32EF09F0D15106E1D005D8B085
:1012580030EF09F032EF09F038EF09F0000E316E87
:10126800010E306E3CEF09F0D0C030F0D1C031F043
:10127800CEC032F0CFC033F03E50D8B446EF09F0BC
:1012880048EF09F05FEF09F03206D8A033063E5068
:10129800D8A451EF09F053EF09F059EF09F0000E07
:1012A8002F6E2B0E2E6E5DEF09F0000E2F6E2D0E99
:1012B8002E6E2EC03EF0000E3D6E1F0E3C6E000ED0
:1012C800F26FE3EF09F03C06D8A03D06D30E3C24AC
:1012D800D96E000E3D20DA6E34C001F035C002F040
:1012E80036C003F037C004F038C005F039C006F046
:1012F8003AC007F03BC008F00A0E096E000E0A6EED
:10130800000E0B6E000E0C6E000E0D6E000E0E6EB3
:10131800000E0F6E000E106EF4EC0AF001C026F0FD
:1013280002C027F003C028F004C029F005C02AF045
:1013380006C02BF007C02CF008C02DF026C013F013
:1013480027C014F01FEC10F01350300FDF6E30067A
:10135800D8A031063206D8A0330634C001F035C013
:1013680002F036C003F037C004F038C005F039C0C9
:1013780006F03AC007F03BC008F00A0E096E000EEE
:101388000A6E000E0B6E000E0C6E000E0D6E000E37
:101398000E6E000E0F6E000E106E30EC0AF001C0DB
:1013A80034F002C035F003C036F004C037F005C091
:1013B80038F006C039F007C03AF008C03BF03DBE2F
:1013C800EEEF09F03D5008E13C04D8A0EEEF09F03B
:1013D800F0EF09F00CEF0AF03450351036103710E2
:1013E800381039103A103B10D8A4FDEF09F0FFEF80
:1013F80009F067EF09F031BE0CEF0AF0315006E151
:101408003004D8B00AEF0AF00CEF0AF067EF09F0E1
:101418003E50D8B412EF0AF014EF0AF01FEF0AF0AA
:101428003C06D8A03D06D30E3C24D96E000E3D20C4
:10143800DA6E3EC0DFFF1CC011F01DC012F0D30EE3
:101448003C24136E000E3D20146E32C015F033C0DC
:1014580016F04EEC0FF01200000E126E10BE39EFAF
:101468000AF037EF0AF04BEF0AF0101E0F1E0E1E9F
:101478000D1E0C1E0B1E0A1E096C000E0A220B22E2
:101488000C220D220E220F221022010E126E08BE0F
:1014980052EF0AF050EF0AF064EF0AF0081E071E38
:1014A800061E051E041E031E021E016C000E0222EB
:1014B800032204220522062207220822010E121AFC
:1014C80020EE13F0070EDE6AE806FDE209500A1066
:1014D8000B100C100D100E100F101010D8B477EF61
:1014E8000AF079EF0AF0CBEF0AF0010E116E87EFE0
:1014F8000AF0D89009360A360B360C360D360E36F9
:101508000F361036112A10AE8CEF0AF08EEF0AF063
:101518007DEF0AF0D890133614361536163617367E
:10152800183619361A360950015C0A5002580B5001
:1015380003580C5004580D5005580E5006580F50BB
:10154800075810500858D8A0ACEF0AF0AEEF0AF0D0
:10155800BFEF0AF00950015E0A50025A0B50035AB5
:101568000C50045A0D50055A0E50065A0F50075A7F
:101578001050085A1380D89010320F320E320D32A4
:101588000C320B320A320932112E8EEF0AF0125049
:10159800D8B4D1EF0AF0D3EF0AF0E3EF0AF01A1E3D
:1015A800191E181E171E161E151E141E136C000E6B
:1015B8001422152216221722182219221A2213C0C1
:1015C80001F014C002F015C003F016C004F017C0F3
:1015D80005F018C006F019C007F01AC008F012008C
:1015E800000E126E08BEFDEF0AF0FBEF0AF00FEFD7
:1015F8000BF0081E071E061E051E041E031E021EF3
:10160800016C000E02220322042205220622072270
:101618000822010E126E10BE16EF0BF014EF0BF03D
:1016280026EF0BF0101E0F1E0E1E0D1E0C1E0B1E9D
:101638000A1E096C000E0A220B220C220D220E2211
:101648000F22102209500A100B100C100D100E104A
:101658000F101010D8B433EF0BF035EF0BF07DEF0F
:101668000BF0010E116E43EF0BF0D89009360A36D5
:101678000B360C360D360E360F361036112A10AED4
:1016880048EF0BF04AEF0BF039EF0BF00950015C13
:101698000A5002580B5003580C5004580D50055866
:1016A8000E5006580F50075810500858D8A05FEF32
:1016B8000BF061EF0BF071EF0BF00950015E0A506F
:1016C800025A0B50035A0C50045A0D50055A0E502A
:1016D800065A0F50075A1050085AD89010320F3235
:1016E8000E320D320C320B320A320932112E4AEF09
:1016F8000BF01250D8B483EF0BF085EF0BF095EF99
:101708000BF0081E071E061E051E041E031E021EE1
:10171800016C000E0222032204220522062207225F
:10172800082201C001F002C002F003C003F004C0A7
:1017380004F005C005F006C006F007C007F008C0B1
:1017480008F0120080968896C7EC10F094EC10F020
:1017580082EC10F0B7EC10F0A6EC10F0B2EC0EF042
:10176800010E0001CB6F190ECC6F030ECD6F070E63
:10177800C96FE60EC86F000ECA6F5D50D8B4C7EFC8
:101788000BF0C9EF0BF0D6EF0BF0060E5D60CFEF54
:101798000BF0D1EF0BF0D6EF0BF0010E0001C76F85
:1017A800D9EF0BF0000E0001C76F0E01D0BDDFEFBF
:1017B8000BF0E3EF0BF0596A592AE4EF0BF0596A82
:1017C8000001C751D8B4EBEF0BF0EEEF0BF0010EB0
:1017D800EFEF0BF0000E59140009D8B4F6EF0BF038
:1017E800F8EF0BF0FBEF0BF08086FCEF0BF0809628
:1017F800CA0E106E000E116ECB0E126E000E136E16
:10180800CC0E146E000E156ECD0E166E000E176EF1
:10181800C80E186E000E196E14EC07F05D5054ECEB
:101828000EF0770E0001606F000E616F010E626F9F
:101838000E0E636F5DC064F0656BCBC066F0676BBE
:10184800D2C068F0696B8BEC0FF09F0E0001606FDF
:10185800000E616F150E626F0E0E636FCCC064F0E0
:10186800656BCDC066F0676BC8C068F0C9C069F029
:101878008BEC0FF0010E59EC10F0770E066E000E8F
:10188800076E3FEC10F0000E59EC10F09F0E066E3C
:10189800000E076E3FEC10F0C1EF0BF029EF00F0DF
:1018A80041C0D9FF42C0DAFFDECFF6FFDDCFF7FF38
:1018B8000800F550250AD8A464EF0CF066EF0CF088
:1018C800E6EF0CF041C0D9FF42C0DAFFDE2A000E75
:1018D800DD22000E0001CF6F000ECE6FCEC05AF091
:1018E800D069D16941C0D9FF42C0DAFFDECF4FF0DD
:1018F800DDCF50F04FC0F6FF50C0F7FF0800F5509D
:10190800640AD8B48AEF0CF08CEF0CF09AEF0CF064
:101918004FC0F6FF50C0F7FF0800F550690AD8A479
:1019280098EF0CF09AEF0CF0DDEF0CF043C0D9FF04
:1019380044C0DAFFDFCF45F0020EDE26DFCF46F0E7
:10194800000EDD2245C0D9FF46C0DAFFDECF47F0E2
:10195800DDCF48F0000E48BEFF0E496E4A6E4B6E52
:101968004C6E4D6E4E6E010E4F24456E000E50208B
:10197800466E41C0D9FF42C0DAFF45C0DEFF46C00F
:10198800DDFF3FC01CF040C01DF047C01EF048C03E
:101998001FF049C020F04AC021F04BC022F04CC0D3
:1019A80023F04DC024F04EC025F0F2EC08F0FAEF19
:1019B8000CF041C0D9FF42C0DAFFDE2A000EDD225A
:1019C800FAEF0CF041C0D9FF42C0DAFFDECFF6FFD4
:1019D800DDCFF7FF0800F550016E026A3FC003F043
:1019E80040C004F08DEC0DF0DDEF0CF012000E6E2F
:1019F8000C0E0F6E0E50D8B404EF0DF006EF0DF07C
:101A080006EF0DF05B505CC009F00A6A095E000E33
:101A18000A5A0ABE19EF0DF00A5009E1080E095CCE
:101A2800D8A019EF0DF01BEF0DF085EF0DF05B500E
:101A38005CC009F00A6A095E000E0A5A0ABE30EF55
:101A48000DF00A5007E1100E095CD8B02EEF0DF02A
:101A580030EF0DF085EF0DF05C505B24016E026AEB
:101A68000236000E046E020E036EF2EC0DF0015009
:101A78000001D26F0C0ED219D8B445EF0DF047EF24
:101A88000DF088EF0DF0F40ED225096E0A6AFF0EEC
:101A98000A220ABE58EF0DF00A5008E10904D8A03E
:101AA80058EF0DF05AEF0DF067EF0DF0D251F40F2B
:101AB8005D2688EF0DF0150E096EC60EE82EFED7CE
:101AC800092EFCD700D00001D2510FC009F00A6AD4
:101AD800095E000E0A5A5D500B6E0C6A09500B5CC9
:101AE8000C50800A0D6E0A50800A0D58D8A07FEF5E
:101AF8000DF081EF0DF05FEF0DF0000E5D6E88EFD9
:101B08000DF0000E0001D26F000E5B6E5BC05CF042
:101B1800120003500410D8B494EF0DF096EF0DF0B6
:101B28009FEF0DF003500410D8A49DEF0DF09FEF28
:101B38000DF0A4EF0DF00150E8EC10F0F1EF0DF00E
:101B480020EE09F00350D9260450DA22DE50DE10C8
:101B5800D8B4B1EF0DF0B3EF0DF0CEEF0DF020EEED
:101B680009F00350D9260450DA2210EE03F003508E
:101B7800E1260450E222DE50E65CE650800A096E57
:101B8800DE50800A0958D8B0CCEF0DF0CEEF0DF03A
:101B9800F1EF0DF020EE03F00350D9260450DA22BD
:101BA800DECF05F0DDCF06F003C0D9FF04C0DAFFB1
:101BB800DECF07F0DDCF08F005500724D96E0650B8
:101BC8000820DA6E01C0DFFF20EE03F00350D926AB
:101BD8000450DA22DE2A000EDD221200000E066E04
:101BE80004BEFBEF0DF0F9EF0DF001EF0EF0036C02
:101BF800041ED8B0042A010E066E02BE08EF0EF0CD
:101C080006EF0EF00EEF0EF0016C021ED8B0022A9D
:101C1800010E061A000E086E000E076E035004101F
:101C2800D8B419EF0EF01BEF0EF043EF0EF0010ED3
:101C3800056E23EF0EF0D89003360436052A04AE5D
:101C480028EF0EF02AEF0EF01FEF0EF0D8900736AF
:101C580008360350015C04500258D8A036EF0EF045
:101C680038EF0EF03DEF0EF00350015E0450025ABB
:101C78000780D89004320332052E2AEF0EF0065062
:101C8800D8B449EF0EF04BEF0EF04FEF0EF0076CA3
:101C9800081ED8B0082A07C001F008C002F01200D8
:101CA800026E02B05AEF0EF05EEF0EF0016A012AE2
:101CB8005FEF0EF0016A7F500118FE0B01187F6E6E
:101CC80002A269EF0EF06BEF0EF06EEF0EF07F825E
:101CD8006FEF0EF07F9202A474EF0EF076EF0EF025
:101CE80079EF0EF079847AEF0EF0799402A67FEFFF
:101CF8000EF081EF0EF084EF0EF07E8C85EF0EF083
:101D08007E9C02A88AEF0EF08CEF0EF08FEF0EF09B
:101D1800798890EF0EF0799802AA95EF0EF097EF78
:101D28000EF09AEF0EF0798A9BEF0EF0799A02ACDA
:101D3800A0EF0EF0A2EF0EF0A5EF0EF07E80A6EF5A
:101D48000EF07E9002AEABEF0EF0ADEF0EF0B0EFFE
:101D58000EF07A80B1EF0EF07A9012007B9C7B94A3
:101D68007A967A947D967D92839C839482968294C7
:101D780085968592050E076E0F0E066EF10EE82EFB
:101D8800FED7062EFCD7072EFAD700F0030E01EC7B
:101D98000FF0A00E00D0E82EFDD7000E036E280E1F
:101DA800FDEC0FF0A00E00D0E82EFDD7000E036E5C
:101DB8000E0EFDEC0FF0A00E00D0E82EFDD7000EA1
:101DC800036E010EFDEC0FF0D00E066ECA0EE82E63
:101DD800FED7062EFCD7000E036E060EFDEC0FF0A4
:101DE800D00E066ECA0EE82EFED7062EFCD7000EC1
:101DF800036E0C0EFDEC0FF01200026E02B007EF3E
:101E08000FF00BEF0FF0016A012A0CEF0FF0016AD7
:101E18000146014601467A500118F70B01187A6EFF
:101E280002B219EF0FF01DEF0FF0016A012A1EEF41
:101E38000FF0016A014601467A500118FB0B0118A0
:101E48007A6E02B42AEF0FF02EEF0FF0016A012A22
:101E58002FEF0FF0016A0146014601467D50011837
:101E6800F70B01187D6E02B63CEF0FF040EF0FF054
:101E7800016A012A41EF0FF0016A01467D500118FD
:101E8800FD0B01187D6ED3EC10F01A0EE82EFED76C
:101E980000D0120016BE53EF0FF055EF0FF05BEFB6
:101EA8000FF015C01AF016C01BF05FEF0FF0000E10
:101EB8001B6E000E1A6E000E196E000E186E71EF72
:101EC8000FF0000E026E200E016E11C003F012C05A
:101ED80004F08DEC0DF0184A192A1A50185C1950A4
:101EE800800A176E1B50800A1758D8A07EEF0FF093
:101EF80080EF0FF065EF0FF013C00AF014C00BF07D
:101F080011C00CF012C00DF0DBEC0FF01200640EE3
:101F180000016A6F000E6B6F60C06CF061C06DF0FD
:101F2800000E706F000E6F6F000E766F000E756FEB
:101F38006C0E516E000E526E62C053F063C054F0C6
:101F48006A0E556E000E566EB4EC0FF000016F511C
:101F58006025D96E70516121DA6E000EDF6E1200B5
:101F680053C057F054C058F0C8EF0FF051C03FF0BD
:101F780052C040F0570E416E000E426E55C043F0FD
:101F880056C044F054EC0CF057C0F6FF58C0F7FFA9
:101F98000800F5500009D8A4D4EF0FF0D6EF0FF0E1
:101FA800BAEF0FF0000E526E000E516E1200000EC6
:101FB800106E000E0F6EECEF0FF00EC001F0026A0B
:101FC8000CC003F00DC004F08DEC0DF00F4A102A80
:101FD8000F500A24D96E10500B20DA6EDF500E6EA7
:101FE8000E50D8A4FAEF0FF0FCEF0FF0E1EF0FF06E
:101FF8001200056E0350D8A404EF10F008EF10F09B
:10200800046A042A09EF10F0046A043A04460446F4
:102018007B500418BF0B04187B6E05380F0B01ECBE
:102028000FF005500F0B01EC0FF0A00E00D0E82EBA
:10203800FDD77B9C120014BE2CEF10F0145006E163
:102048001304D8B02AEF10F02CEF10F03AEF10F08C
:1020580013C015F014C016F0151E161E154A162AC0
:1020680015C013F016C014F03EEF10F013C013F0B3
:1020780014C014F012004CEF10F0010E036E06C0ED
:10208800D9FF07C0DAFFDF50FDEC0FF0064A072A38
:1020980006C0D9FF07C0DAFFDF50D8A456EF10F00A
:1020A80058EF10F041EF10F01200066E0650D8B449
:1020B80060EF10F062EF10F069EF10F0000E036EA1
:1020C800800EFDEC0FF06EEF10F0000E036EC00EE8
:1020D800FDEC0FF0120000EECEF0250EEE6AE806D9
:1020E800FDE15D6A5C6A5B6A5A6A5E905E92000E08
:1020F800F86E0E0EF76E0001A6EF0BF0868E0E013D
:10210800CE51F80B0309CE6FCF51F80B0509CF6FED
:10211800CC83CC89CD81DEEC10F00E01CC8F12007F
:10212800868E0E01D251F80B0309D26FD351F80BEA
:102138000509D36FD083D089D183DEEC10F00E016E
:10214800D08F1200879087928194869C8198819A7B
:10215800869082907F907F9279947E9C7998799AE4
:102168007E907A901200D6501F0B4009D66ED68802
:10217800D650F00B0609D66ED588000ED46E000E28
:10218800D36ED58E12000E012B812B83298BF28AF8
:10219800F28C218121831F8BF28CF28E12007B84BA
:1021A8000A0EE82EFED700D07B940A0EE82EFED742
:1021B80000D01200F30E0E01C617C691C751E00BEE
:0A21C8001009C76FC68F1200120045
:020000040020DA
:10000000FF0FFF0FFF0FFF0FFF0FFF0FFF0FFF0F80
:020000040030CA
:0C000000AAFFFFFF9FFFFFFFFFFFFFFFB5
:00000001FF
