:040000002BEF00F0F2
:100008005F820E0135A30BEF00F00DEF00F010EF4B
:1000180000F0D1C05DF0359335A115EF00F017EF72
:1000280000F01AEF00F0D1C05EF0359133AB1FEF4E
:1000380000F021EF00F029EF00F00001D12B0E01B4
:10004800339B090ED46EC30ED36E5F9211006EEF10
:0200580010F0A6
:100E000000483A256420446F573A2564204D443AFF
:100E10002564202000446174653A2025642F2564F0
:070E20002F256420200000D3
:100E2800170E0001D1651BEF07F01DEF07F02CEF3F
:100E380007F0000ED16F12C0D9FF13C0DAFFDF2A06
:100E480014C0D9FF15C0DAFFDF2A1050FAEC0CF0F5
:100E580012C0D9FF13C0DAFF070EDF6436EF07F0C0
:100E680038EF07F03EEF07F012C0D9FF13C0DAFFE2
:100E7800010EDF6E14C0D9FF15C0DAFF1E0EDF6445
:100E880048EF07F04AEF07F089EF07F016C0D9FFDF
:100E980017C0DAFF040EDE18D8B455EF07F057EF85
:100EA80007F07EEF07F016C0D9FF17C0DAFF060E6D
:100EB800DE18D8B462EF07F064EF07F07EEF07F0B2
:100EC80016C0D9FF17C0DAFF090EDE18D8B46FEFC5
:100ED80007F071EF07F07EEF07F016C0D9FF17C0D3
:100EE800DAFF0B0EDE18D8A47CEF07F07EEF07F0D0
:100EF80089EF07F014C0D9FF15C0DAFF010EDF6EC5
:100F080016C0D9FF17C0DAFFDF2A14C0D9FF15C0F1
:100F1800DAFF1F0EDF6493EF07F095EF07F0EDEFB0
:100F280007F016C0D9FF17C0DAFFDE04D8B49FEF68
:100F380007F0A1EF07F0E2EF07F016C0D9FF17C0DE
:100F4800DAFF030EDE18D8B4ACEF07F0AEEF07F007
:100F5800E2EF07F016C0D9FF17C0DAFF050EDE185A
:100F6800D8B4B9EF07F0BBEF07F0E2EF07F016C00F
:100F7800D9FF17C0DAFF070EDE18D8B4C6EF07F09E
:100F8800C8EF07F0E2EF07F016C0D9FF17C0DAFF85
:100F9800080EDE18D8B4D3EF07F0D5EF07F0E2EF6C
:100FA80007F016C0D9FF17C0DAFF0A0EDE18D8A45A
:100FB800E0EF07F0E2EF07F0EDEF07F014C0D9FF1C
:100FC80015C0DAFF010EDF6E16C0D9FF17C0DAFFB1
:100FD800DF2A14C0D9FF15C0DAFF1B0EDF64F7EF54
:100FE80007F0F9EF07F042EF08F016C0D9FF17C075
:100FF800DAFF020EDE18D8A404EF08F006EF08F0B6
:1010080042EF08F018C0D9FF19C0DAFFDECF1AF096
:10101800DDCF1BF0030E1A16000E1B161A501B10FC
:10102800D8A419EF08F01BEF08F034EF08F014C04B
:10103800D9FF15C0DAFF1D0EDF6425EF08F027EF92
:1010480008F042EF08F014C0D9FF15C0DAFF010E0E
:10105800DF6E16C0D9FF17C0DAFFDF2A42EF08F0AB
:1010680014C0D9FF15C0DAFF1C0EDF643EEF08F08C
:1010780040EF08F042EF08F027EF08F014C0D9FF5E
:1010880015C0DAFF1F0EDF644CEF08F04EEF08F0D2
:101098006EEF08F016C0D9FF17C0DAFF0C0EDE1885
:1010A800D8A459EF08F05BEF08F06EEF08F014C011
:1010B800D9FF15C0DAFF010EDF6E16C0D9FF17C0C1
:1010C800DAFF010EDF6E18C0D9FF19C0DAFFDE2A79
:1010D800000EDD2216C0D9FF17C0DAFF030EDE1896
:1010E800D8A479EF08F07BEF08F0B0EF08F014C04F
:1010F800D9FF15C0DAFF180EDF6485EF08F087EF17
:1011080008F0B0EF08F012C0D9FF13C0DAFF070EDD
:10111800DE18D8A492EF08F094EF08F0B0EF08F0CA
:1011280010C0D9FF11C0DAFFDF50D8A49EEF08F035
:10113800A0EF08F0B0EF08F00001D105D8A4A7EFA0
:1011480008F0A9EF08F0B0EF08F0D10710C0D9FFF8
:1011580011C0DAFF010EDF6E000E1C6E16C0D9FF3B
:1011680017C0DAFF080EDE18D8A4BDEF08F0BFEFED
:1011780008F0DAEF08F014C0D9FF15C0DAFF180E2E
:10118800DF64C9EF08F0CBEF08F0DAEF08F012C01F
:10119800D9FF13C0DAFF070EDE18D8A4D6EF08F07F
:1011A800D8EF08F0DAEF08F0010E1C6E10C0D9FF76
:1011B80011C0DAFFDF501C140009D8B4E6EF08F0BC
:1011C800E8EF08F0F0EF08F00001D12B10C0D9FFCC
:1011D80011C0DAFF000EDF6E12001EC034F01FC00F
:1011E80035F020C036F021C037F022C038F023C0D7
:1011F80039F024C03AF025C03BF03BBE06EF09F0B9
:1012080009EF09F0010E0AEF09F0000E3E6E3E509C
:10121800D8B411EF09F013EF09F023EF09F03B1EE2
:101228003A1E391E381E371E361E351E346C000E07
:10123800352236223722382239223A223B225BBE17
:1012480030EF09F05B5006E15A04D8B02EEF09F0F0
:1012580030EF09F036EF09F0000E316E010E306EF6
:101268003AEF09F05AC030F05BC031F0CEC032F02E
:10127800CFC033F03E50D8B444EF09F046EF09F040
:101288005DEF09F03206D8A033063E50D8A44FEFE0
:1012980009F051EF09F057EF09F0000E2F6E2B0EF1
:1012A8002E6E5BEF09F0000E2F6E2D0E2E6E2EC0E7
:1012B8003EF0000E3D6E1F0E3C6E000E0001F16FF9
:1012C800E2EF09F03C06D8A03D06D20E3C24D96EC8
:1012D800000E3D20DA6E34C001F035C002F036C091
:1012E80003F037C004F038C005F039C006F03AC042
:1012F80007F03BC008F00A0E096E000E0A6E000ED9
:101308000B6E000E0C6E000E0D6E000E0E6E000EB3
:101318000F6E000E106EF3EC0AF001C026F002C04A
:1013280027F003C028F004C029F005C02AF006C041
:101338002BF007C02CF008C02DF026C013F027C0F2
:1013480014F01EEC10F01350300FDF6E3006D8A0EA
:1013580031063206D8A0330634C001F035C002F099
:1013680036C003F037C004F038C005F039C006F0C5
:101378003AC007F03BC008F00A0E096E000E0A6E6C
:10138800000E0B6E000E0C6E000E0D6E000E0E6E33
:10139800000E0F6E000E106E2FEC0AF001C034F034
:1013A80002C035F003C036F004C037F005C038F08D
:1013B80006C039F007C03AF008C03BF03DBEEDEF7B
:1013C80009F03D5008E13C04D8A0EDEF09F0EFEF3B
:1013D80009F00BEF0AF0345035103610371038107A
:1013E80039103A103B10D8A4FCEF09F0FEEF09F0D1
:1013F80066EF09F031BE0BEF0AF0315006E1300418
:10140800D8B009EF0AF00BEF0AF066EF09F03E508A
:10141800D8B411EF0AF013EF0AF01EEF0AF03C06F9
:10142800D8A03D06D20E3C24D96E000E3D20DA6EBF
:101438003EC0DFFF1CC011F01DC012F0D20E3C24CC
:10144800136E000E3D20146E32C015F033C016F036
:101458004DEC0FF01200000E126E10BE38EF0AF0BD
:1014680036EF0AF04AEF0AF0101E0F1E0E1E0D1E70
:101478000C1E0B1E0A1E096C000E0A220B220C22DF
:101488000D220E220F221022010E126E08BE51EFFD
:101498000AF04FEF0AF063EF0AF0081E071E061E57
:1014A800051E041E031E021E016C000E02220322EA
:1014B80004220522062207220822010E121A20EE13
:1014C80013F0070EDE6AE806FDE209500A100B1059
:1014D8000C100D100E100F101010D8B476EF0AF083
:1014E80078EF0AF0CAEF0AF0010E116E86EF0AF0E3
:1014F800D89009360A360B360C360D360E360F36AE
:101508001036112A10AE8BEF0AF08DEF0AF07CEF3F
:101518000AF0D8901336143615361636173618369C
:1015280019361A360950015C0A5002580B500358F4
:101538000C5004580D5005580E5006580F500758B7
:1015480010500858D8A0ABEF0AF0ADEF0AF0BEEF84
:101558000AF00950015E0A50025A0B50035A0C5007
:10156800045A0D50055A0E50065A0F50075A10507B
:10157800085A1380D89010320F320E320D320C32C6
:101588000B320A320932112E8DEF0AF01250D8B4FC
:10159800D0EF0AF0D2EF0AF0E2EF0AF01A1E191E95
:1015A800181E171E161E151E141E136C000E14226C
:1015B800152216221722182219221A2213C001F006
:1015C80014C002F015C003F016C004F017C005F0EF
:1015D80018C006F019C007F01AC008F01200000E73
:1015E800126E08BEFCEF0AF0FAEF0AF00EEF0BF0ED
:1015F800081E071E061E051E041E031E021E016C81
:10160800000E0222032204220522062207220822B3
:10161800010E126E10BE15EF0BF013EF0BF025EF55
:101628000BF0101E0F1E0E1E0D1E0C1E0B1E0A1E8A
:10163800096C000E0A220B220C220D220E220F2208
:10164800102209500A100B100C100D100E100F105C
:101658001010D8B432EF0BF034EF0BF07CEF0BF036
:10166800010E116E42EF0BF0D89009360A360B3690
:101678000C360D360E360F361036112A10AE47EFDF
:101688000BF049EF0BF038EF0BF00950015C0A50F2
:1016980002580B5003580C5004580D5005580E5062
:1016A80006580F50075810500858D8A05EEF0BF096
:1016B80060EF0BF070EF0BF00950015E0A50025A10
:1016C8000B50035A0C50045A0D50055A0E50065A26
:1016D8000F50075A1050085AD89010320F320E3255
:1016E8000D320C320B320A320932112E49EF0BF04F
:1016F8001250D8B482EF0BF084EF0BF094EF0BF09C
:10170800081E071E061E051E041E031E021E016C6F
:10171800000E0222032204220522062207220822A2
:1017280001C001F002C002F003C003F004C004F0DD
:1017380005C005F006C006F007C007F008C008F0AD
:10174800120080968896C7EC10F094EC10F082ECAA
:1017580010F0B7EC10F0A6EC10F0B1EC0EF0010EA2
:101768000001CB6F190ECC6F030ECD6F070EC96F3A
:10177800E60EC86F000ECA6F0001D151D8B4C7EF8A
:101788000BF0C9EF0BF0D5EF0BF0060ED161CFEFE0
:101798000BF0D1EF0BF0D5EF0BF0010EC76FD7EFC1
:1017A8000BF0000EC76F0E01D0BDDDEF0BF0E1EFBF
:1017B8000BF0596A592AE2EF0BF0596A0001C75138
:1017C800D8B4E9EF0BF0ECEF0BF0010EEDEF0BF0F6
:1017D800000E59140009D8B4F4EF0BF0F6EF0BF033
:1017E800F9EF0BF08086FAEF0BF08096CA0E106EB8
:1017F800000E116ECB0E126E000E136ECC0E146E10
:10180800000E156ECD0E166E000E176EC80E186EF1
:10181800000E196E14EC07F00001D15153EC0EF0D4
:10182800770E0001606F000E616F010E626F0E0E81
:10183800636FD1C064F0656BCBC066F0676BD0C0D6
:1018480068F0696B8AEC0FF09F0E0001606F000E64
:10185800616F150E626F0E0E636FCCC064F0656B1E
:10186800CDC066F0676BC8C068F0C9C069F08AEC83
:101878000FF0010E58EC10F0770E066E000E076E92
:101888003EEC10F0000E58EC10F09F0E066E000EA5
:10189800076E3EEC10F0C0EF0BF02BEF00F041C0EC
:1018A800D9FF42C0DAFFDECFF6FFDDCFF7FF080031
:1018B800F550250AD8A463EF0CF065EF0CF0E5EFBE
:1018C8000CF041C0D9FF42C0DAFFDE2A000EDD224B
:1018D800000E0001CF6F000ECE6FCEC05CF05A68CC
:1018E8005B6841C0D9FF42C0DAFFDECF4FF0DDCFE1
:1018F80050F04FC0F6FF50C0F7FF0800F550640ADB
:10190800D8B489EF0CF08BEF0CF099EF0CF04FC0C6
:10191800F6FF50C0F7FF0800F550690AD8A497EF02
:101928000CF099EF0CF0DCEF0CF043C0D9FF44C089
:10193800DAFFDFCF45F0020EDE26DFCF46F0000EDD
:10194800DD2245C0D9FF46C0DAFFDECF47F0DDCF44
:1019580048F0000E48BEFF0E496E4A6E4B6E4C6E44
:101968004D6E4E6E010E4F24456E000E5020466E91
:1019780041C0D9FF42C0DAFF45C0DEFF46C0DDFFE7
:101988003FC01CF040C01DF047C01EF048C01FF00B
:1019980049C020F04AC021F04BC022F04CC023F0CF
:1019A8004DC024F04EC025F0F1EC08F0F9EF0CF032
:1019B80041C0D9FF42C0DAFFDE2A000EDD22F9EF6E
:1019C8000CF041C0D9FF42C0DAFFDECFF6FFDDCF11
:1019D800F7FF0800F550016E026A3FC003F040C0EF
:1019E80004F08CEC0DF0DCEF0CF012000E6E0C0E17
:1019F8000F6E0E50D8B403EF0DF005EF0DF005EFA4
:101A08000DF05D505EC009F00A6A095E000E0A5AC0
:101A18000ABE18EF0DF00A5009E1080E095CD8A0BB
:101A280018EF0DF01AEF0DF084EF0DF05D505EC069
:101A380009F00A6A095E000E0A5A0ABE2FEF0DF075
:101A48000A5007E1100E095CD8B02DEF0DF02FEF0A
:101A58000DF084EF0DF05E505D24016E026A0236CF
:101A6800000E046E020E036EF1EC0DF00150000141
:101A7800D06F0C0ED019D8B444EF0DF046EF0DF02E
:101A880087EF0DF0F40ED025096E0A6AFF0E0A22C0
:101A98000ABE57EF0DF00A5008E10904D8A057EF25
:101AA8000DF059EF0DF066EF0DF0D051F40FD1277E
:101AB80087EF0DF0150E096EC60EE82EFED7092E1B
:101AC800FCD700D00001D0510FC009F00A6A095EA6
:101AD800000E0A5AD1510B6E0C6A09500B5C0C505F
:101AE800800A0D6E0A50800A0D58D8A07EEF0DF0BE
:101AF80080EF0DF05EEF0DF0000ED16F87EF0DF067
:101B0800000E0001D06F000E5D6E5DC05EF0120029
:101B180003500410D8B493EF0DF095EF0DF09EEF3D
:101B28000DF003500410D8A49CEF0DF09EEF0DF0BB
:101B3800A3EF0DF00150E8EC10F0F0EF0DF020EEFF
:101B480009F00350D9260450DA22DE50DE10D8B44A
:101B5800B0EF0DF0B2EF0DF0CDEF0DF020EE09F083
:101B68000350D9260450DA2210EE03F00350E12680
:101B78000450E222DE50E65CE650800A096EDE5030
:101B8800800A0958D8B0CBEF0DF0CDEF0DF0F0EF8B
:101B98000DF020EE03F00350D9260450DA22DECFF0
:101BA80005F0DDCF06F003C0D9FF04C0DAFFDECFB1
:101BB80007F0DDCF08F005500724D96E065008203D
:101BC800DA6E01C0DFFF20EE03F00350D92604507F
:101BD800DA22DE2A000EDD221200000E066E04BE96
:101BE800FAEF0DF0F8EF0DF000EF0EF0036C041EA5
:101BF800D8B0042A010E066E02BE07EF0EF005EFFC
:101C08000EF00DEF0EF0016C021ED8B0022A010E84
:101C1800061A000E086E000E076E03500410D8B4A2
:101C280018EF0EF01AEF0EF042EF0EF0010E056EEF
:101C380022EF0EF0D89003360436052A04AE27EFBB
:101C48000EF029EF0EF01EEF0EF0D890073608368A
:101C58000350015C04500258D8A035EF0EF037EF5E
:101C68000EF03CEF0EF00350015E0450025A07805C
:101C7800D89004320332052E29EF0EF00650D8B45E
:101C880048EF0EF04AEF0EF04EEF0EF0076C081E0C
:101C9800D8B0082A07C001F008C002F01200026E8E
:101CA80002B059EF0EF05DEF0EF0016A012A5EEF07
:101CB8000EF0016A7F500118FE0B01187F6E02A218
:101CC80068EF0EF06AEF0EF06DEF0EF07F826EEFA8
:101CD8000EF07F9202A473EF0EF075EF0EF078EF1E
:101CE8000EF0798479EF0EF0799402A67EEF0EF06B
:101CF80080EF0EF083EF0EF07E8C84EF0EF07E9C6A
:101D080002A889EF0EF08BEF0EF08EEF0EF07988B7
:101D18008FEF0EF0799802AA94EF0EF096EF0EF07E
:101D280099EF0EF0798A9AEF0EF0799A02AC9FEF4C
:101D38000EF0A1EF0EF0A4EF0EF07E80A5EF0EF0EE
:101D48007E9002AEAAEF0EF0ACEF0EF0AFEF0EF001
:101D58007A80B0EF0EF07A9012007B9C7B947A9692
:101D68007A947D967D92839C8394829682948596BC
:101D78008592050E076E0F0E066EF10EE82EFED741
:101D8800062EFCD7072EFAD700F0030E00EC0FF052
:101D9800A00E00D0E82EFDD7000E036E280EFCEC36
:101DA8000FF0A00E00D0E82EFDD7000E036E0E0E29
:101DB800FCEC0FF0A00E00D0E82EFDD7000E036E4D
:101DC800010EFCEC0FF0D00E066ECA0EE82EFED700
:101DD800062EFCD7000E036E060EFCEC0FF0D00E9C
:101DE800066ECA0EE82EFED7062EFCD7000E036E2E
:101DF8000C0EFCEC0FF01200026E02B006EF0FF0B2
:101E08000AEF0FF0016A012A0BEF0FF0016A014691
:101E1800014601467A500118F70B01187A6E02B292
:101E280018EF0FF01CEF0FF0016A012A1DEF0FF0F9
:101E3800016A014601467A500118FB0B01187A6EB7
:101E480002B429EF0FF02DEF0FF0016A012A2EEFEF
:101E58000FF0016A0146014601467D500118F70B53
:101E680001187D6E02B63BEF0FF03FEF0FF0016AED
:101E7800012A40EF0FF0016A01467D500118FD0B61
:101E880001187D6ED3EC10F01A0EE82EFED700D0A4
:101E9800120016BE52EF0FF054EF0FF05AEF0FF08A
:101EA80015C01AF016C01BF05EEF0FF0000E1B6E87
:101EB800000E1A6E000E196E000E186E70EF0FF0FD
:101EC800000E026E200E016E11C003F012C004F065
:101ED8008CEC0DF0184A192A1A50185C1950800A0F
:101EE800176E1B50800A1758D8A07DEF0FF07FEFB0
:101EF8000FF064EF0FF013C00AF014C00BF011C01C
:101F08000CF012C00DF0DAEC0FF01200640E0001B4
:101F18006A6F000E6B6F60C06CF061C06DF0000EF0
:101F2800706F000E6F6F000E766F000E756F6C0E7F
:101F3800516E000E526E62C053F063C054F06A0EC8
:101F4800556E000E566EB3EC0FF000016F51602510
:101F5800D96E70516121DA6E000EDF6E120053C027
:101F680057F054C058F0C7EF0FF051C03FF052C0BF
:101F780040F0570E416E000E426E55C043F056C0F9
:101F880044F053EC0CF057C0F6FF58C0F7FF0800B8
:101F9800F5500009D8A4D3EF0FF0D5EF0FF0B9EF43
:101FA8000FF0000E526E000E516E1200000E106EF1
:101FB800000E0F6EEBEF0FF00EC001F0026A0CC0BE
:101FC80003F00DC004F08CEC0DF00F4A102A0F50EE
:101FD8000A24D96E10500B20DA6EDF500E6E0E50A8
:101FE800D8A4F9EF0FF0FBEF0FF0E0EF0FF01200BD
:101FF800056E0350D8A403EF10F007EF10F0046A41
:10200800042A08EF10F0046A043A044604467B5098
:102018000418BF0B04187B6E05380F0B00EC0FF08B
:1020280005500F0B00EC0FF0A00E00D0E82EFDD7E6
:102038007B9C120014BE2BEF10F0145006E1130421
:10204800D8B029EF10F02BEF10F039EF10F013C0D3
:1020580015F014C016F0151E161E154A162A15C0BE
:1020680013F016C014F03DEF10F013C013F014C0B5
:1020780014F012004BEF10F0010E036E06C0D9FFEA
:1020880007C0DAFFDF50FCEC0FF0064A072A06C04B
:10209800D9FF07C0DAFFDF50D8A455EF10F057EF8B
:1020A80010F040EF10F01200066E0650D8B45FEF43
:1020B80010F061EF10F068EF10F0000E036E800E64
:1020C800FCEC0FF06DEF10F0000E036EC00EFCEC90
:1020D8000FF0120000EECEF0240EEE6AE806FDE1E5
:1020E8005E6A5D6A5C6A5B6A5A6A5F905F92000E1C
:1020F800F86E0E0EF76E0001A5EF0BF0868E0E013E
:10210800CE51F80B0309CE6FCF51F80B0509CF6FED
:10211800CC83CC89CD81DEEC10F00E01CC8F12007F
:10212800868E0E01D251F80B0309D26FD351F80BEA
:102138000509D36FD083D089D183DEEC10F00E016E
:10214800D08F1200879087928194869C8198819A7B
:10215800869082907F907F9279947E9C7998799AE4
:102168007E907A901200D6501F0B4009D66ED68802
:10217800D650F00B0609D66ED588000ED46E000E28
:10218800D36ED58E12000E012B812B83298BF28AF8
:10219800F28C218121831F8BF28CF28E12007B84BA
:1021A8000A0EE82EFED700D07B940A0EE82EFED742
:1021B80000D01200F30E0E01C617C691C751E00BEE
:0A21C8001009C76FC68F1200120045
:020000040020DA
:10000000FF0FFF0FFF0FFF0FFF0FFF0FFF0FFF0F80
:020000040030CA
:0C000000AAFFFFFF9FFFFFFFFFFFFFFFB5
:00000001FF
